{
  "contractName": "Token",
  "abi": [
    {
      "inputs": [],
      "stateMutability": "nonpayable",
      "type": "constructor"
    },
    {
      "anonymous": false,
      "inputs": [
        {
          "indexed": true,
          "internalType": "address",
          "name": "to",
          "type": "address"
        },
        {
          "indexed": false,
          "internalType": "uint256",
          "name": "value",
          "type": "uint256"
        }
      ],
      "name": "Mint",
      "type": "event"
    },
    {
      "anonymous": false,
      "inputs": [
        {
          "indexed": true,
          "internalType": "address",
          "name": "from",
          "type": "address"
        },
        {
          "indexed": true,
          "internalType": "address",
          "name": "to",
          "type": "address"
        },
        {
          "indexed": false,
          "internalType": "uint256",
          "name": "value",
          "type": "uint256"
        }
      ],
      "name": "Transfer",
      "type": "event"
    },
    {
      "inputs": [],
      "name": "admin",
      "outputs": [
        {
          "internalType": "address",
          "name": "",
          "type": "address"
        }
      ],
      "stateMutability": "view",
      "type": "function",
      "constant": true
    },
    {
      "inputs": [
        {
          "internalType": "uint256",
          "name": "amount",
          "type": "uint256"
        },
        {
          "internalType": "address",
          "name": "reciever",
          "type": "address"
        }
      ],
      "name": "mint",
      "outputs": [],
      "stateMutability": "nonpayable",
      "type": "function"
    },
    {
      "inputs": [
        {
          "internalType": "address",
          "name": "from",
          "type": "address"
        },
        {
          "internalType": "address",
          "name": "to",
          "type": "address"
        },
        {
          "internalType": "uint256",
          "name": "amount",
          "type": "uint256"
        }
      ],
      "name": "transfer",
      "outputs": [],
      "stateMutability": "nonpayable",
      "type": "function"
    },
    {
      "inputs": [
        {
          "internalType": "address",
          "name": "account",
          "type": "address"
        }
      ],
      "name": "balanceOf",
      "outputs": [
        {
          "internalType": "uint256",
          "name": "",
          "type": "uint256"
        }
      ],
      "stateMutability": "view",
      "type": "function",
      "constant": true
    }
  ],
  "bytecode": "0x608060405234801561001057600080fd5b50336000806101000a81548173ffffffffffffffffffffffffffffffffffffffff021916908373ffffffffffffffffffffffffffffffffffffffff160217905550610641806100606000396000f3fe608060405234801561001057600080fd5b506004361061004c5760003560e01c806370a082311461005157806394bf804d14610081578063beabacc81461009d578063f851a440146100b9575b600080fd5b61006b60048036038101906100669190610408565b6100d7565b604051610078919061044e565b60405180910390f35b61009b60048036038101906100969190610495565b610120565b005b6100b760048036038101906100b291906104d5565b610220565b005b6100c1610381565b6040516100ce9190610537565b60405180910390f35b6000600160008373ffffffffffffffffffffffffffffffffffffffff1673ffffffffffffffffffffffffffffffffffffffff168152602001908152602001600020549050919050565b60008054906101000a900473ffffffffffffffffffffffffffffffffffffffff1673ffffffffffffffffffffffffffffffffffffffff163373ffffffffffffffffffffffffffffffffffffffff161461017857600080fd5b81600160008373ffffffffffffffffffffffffffffffffffffffff1673ffffffffffffffffffffffffffffffffffffffff16815260200190815260200160002060008282546101c79190610581565b925050819055508073ffffffffffffffffffffffffffffffffffffffff167f0f6798a560793a54c3bcfe86a93cde1e73087d944c0ea20544137d412139688583604051610214919061044e565b60405180910390a25050565b80600160008573ffffffffffffffffffffffffffffffffffffffff1673ffffffffffffffffffffffffffffffffffffffff168152602001908152602001600020541161026b57600080fd5b80600160008573ffffffffffffffffffffffffffffffffffffffff1673ffffffffffffffffffffffffffffffffffffffff16815260200190815260200160002060008282546102ba91906105d7565b9250508190555080600160008473ffffffffffffffffffffffffffffffffffffffff1673ffffffffffffffffffffffffffffffffffffffff16815260200190815260200160002060008282546103109190610581565b925050819055508173ffffffffffffffffffffffffffffffffffffffff168373ffffffffffffffffffffffffffffffffffffffff167fddf252ad1be2c89b69c2b068fc378daa952ba7f163c4a11628f55a4df523b3ef83604051610374919061044e565b60405180910390a3505050565b60008054906101000a900473ffffffffffffffffffffffffffffffffffffffff1681565b600080fd5b600073ffffffffffffffffffffffffffffffffffffffff82169050919050565b60006103d5826103aa565b9050919050565b6103e5816103ca565b81146103f057600080fd5b50565b600081359050610402816103dc565b92915050565b60006020828403121561041e5761041d6103a5565b5b600061042c848285016103f3565b91505092915050565b6000819050919050565b61044881610435565b82525050565b6000602082019050610463600083018461043f565b92915050565b61047281610435565b811461047d57600080fd5b50565b60008135905061048f81610469565b92915050565b600080604083850312156104ac576104ab6103a5565b5b60006104ba85828601610480565b92505060206104cb858286016103f3565b9150509250929050565b6000806000606084860312156104ee576104ed6103a5565b5b60006104fc868287016103f3565b935050602061050d868287016103f3565b925050604061051e86828701610480565b9150509250925092565b610531816103ca565b82525050565b600060208201905061054c6000830184610528565b92915050565b7f4e487b7100000000000000000000000000000000000000000000000000000000600052601160045260246000fd5b600061058c82610435565b915061059783610435565b9250827fffffffffffffffffffffffffffffffffffffffffffffffffffffffffffffffff038211156105cc576105cb610552565b5b828201905092915050565b60006105e282610435565b91506105ed83610435565b925082821015610600576105ff610552565b5b82820390509291505056fea2646970667358221220ca9f7dbf65327347d3cb3a455786ea99c89338a15925e97a1aeac7f41e8f2a3864736f6c634300080b0033",
  "immutableReferences": {},
  "source": "pragma solidity ^0.8.11;\n//SPDX-license: MIT\n\ncontract Token{\n\n  address public admin;\n  mapping(address => uint256) balances;\n  constructor() {\n    admin = msg.sender;\n  }\n\n  event Mint(address indexed to, uint256 value);\n\n  function mint(uint256 amount, address reciever) public {\n    require(msg.sender == admin);\n    balances[reciever] += amount;    \n    emit Mint(reciever, amount);\n  }\n\n  event Transfer(address indexed from, address indexed to, uint256 value);\n\n  function transfer(address from, address to, uint256 amount) public {\n    require(balances[from] > amount);\n    balances[from] -= amount;\n    balances[to] += amount;\n    emit Transfer(from, to, amount);\n  }\n\n  function balanceOf(address account) public view returns (uint256) {\n    return balances[account];\n  }\n}\n",
  "sourcePath": "/home/astar_anje/Documents/solidity/token/contracts/Token.sol",
  "compiler": {
    "name": "solc",
    "version": "0.8.11+commit.d7f03943.Emscripten.clang"
  },
  "schemaVersion": "3.4.4",
  "updatedAt": "2022-02-24T15:23:00.339Z",
  "networkType": "ethereum",
  "devdoc": {
    "kind": "dev",
    "methods": {},
    "version": 1
  },
  "userdoc": {
    "kind": "user",
    "methods": {},
    "version": 1
  }
}